{
  "contractName": "TodoApp",
  "abi": [
    {
      "anonymous": false,
      "inputs": [
        {
          "indexed": false,
          "internalType": "uint256",
          "name": "todoId",
          "type": "uint256"
        }
      ],
      "name": "OnTodoAdded",
      "type": "event"
    },
    {
      "anonymous": false,
      "inputs": [
        {
          "indexed": false,
          "internalType": "uint256",
          "name": "todoId",
          "type": "uint256"
        }
      ],
      "name": "OnTodoCompleted",
      "type": "event"
    },
    {
      "anonymous": false,
      "inputs": [
        {
          "indexed": false,
          "internalType": "uint256",
          "name": "todoId",
          "type": "uint256"
        }
      ],
      "name": "OnTodoDeleted",
      "type": "event"
    },
    {
      "anonymous": false,
      "inputs": [
        {
          "indexed": false,
          "internalType": "uint256",
          "name": "todoId",
          "type": "uint256"
        }
      ],
      "name": "OnTodoUndone",
      "type": "event"
    },
    {
      "constant": true,
      "inputs": [
        {
          "internalType": "uint256",
          "name": "_todoId",
          "type": "uint256"
        }
      ],
      "name": "isTodoValid",
      "outputs": [
        {
          "internalType": "bool",
          "name": "isValid",
          "type": "bool"
        }
      ],
      "payable": false,
      "stateMutability": "view",
      "type": "function"
    },
    {
      "constant": true,
      "inputs": [
        {
          "internalType": "uint256",
          "name": "_todoId",
          "type": "uint256"
        }
      ],
      "name": "isTodoCompleted",
      "outputs": [
        {
          "internalType": "bool",
          "name": "isValid",
          "type": "bool"
        }
      ],
      "payable": false,
      "stateMutability": "view",
      "type": "function"
    },
    {
      "constant": true,
      "inputs": [
        {
          "internalType": "uint256",
          "name": "_todoId",
          "type": "uint256"
        }
      ],
      "name": "getTodo",
      "outputs": [
        {
          "internalType": "string",
          "name": "",
          "type": "string"
        },
        {
          "internalType": "bool",
          "name": "",
          "type": "bool"
        }
      ],
      "payable": false,
      "stateMutability": "view",
      "type": "function"
    },
    {
      "constant": true,
      "inputs": [],
      "name": "getTodoList",
      "outputs": [
        {
          "internalType": "uint256[]",
          "name": "",
          "type": "uint256[]"
        },
        {
          "internalType": "bool[]",
          "name": "",
          "type": "bool[]"
        }
      ],
      "payable": false,
      "stateMutability": "view",
      "type": "function"
    },
    {
      "constant": false,
      "inputs": [
        {
          "internalType": "string",
          "name": "_taskName",
          "type": "string"
        }
      ],
      "name": "addTodo",
      "outputs": [],
      "payable": false,
      "stateMutability": "nonpayable",
      "type": "function"
    },
    {
      "constant": false,
      "inputs": [
        {
          "internalType": "uint256",
          "name": "_todoId",
          "type": "uint256"
        }
      ],
      "name": "deleteTodo",
      "outputs": [],
      "payable": false,
      "stateMutability": "nonpayable",
      "type": "function"
    },
    {
      "constant": false,
      "inputs": [
        {
          "internalType": "uint256",
          "name": "_todoId",
          "type": "uint256"
        }
      ],
      "name": "completeTodo",
      "outputs": [],
      "payable": false,
      "stateMutability": "nonpayable",
      "type": "function"
    },
    {
      "constant": false,
      "inputs": [
        {
          "internalType": "uint256",
          "name": "_todoId",
          "type": "uint256"
        }
      ],
      "name": "undoneTodo",
      "outputs": [],
      "payable": false,
      "stateMutability": "nonpayable",
      "type": "function"
    }
  ],
  "bytecode": "0x608060405234801561001057600080fd5b50610c93806100206000396000f3fe608060405234801561001057600080fd5b50600436106100885760003560e01c80636e3c67381161005b5780636e3c6738146101d65780637a3f48a81461020457806395ffebf51461024a578063dd68afb61461030557610088565b8063040485001461008d5780630c7a16be146100bb57806320fe2144146101625780633850e7d514610190575b600080fd5b6100b9600480360360208110156100a357600080fd5b81019080803590602001909291905050506103b7565b005b6100c36104a4565b604051808060200180602001838103835285818151815260200191508051906020019060200280838360005b8381101561010a5780820151818401526020810190506100ef565b50505050905001838103825284818151815260200191508051906020019060200280838360005b8381101561014c578082015181840152602081019050610131565b5050505090500194505050505060405180910390f35b61018e6004803603602081101561017857600080fd5b81019080803590602001909291905050506105c9565b005b6101bc600480360360208110156101a657600080fd5b81019080803590602001909291905050506106b7565b604051808215151515815260200191505060405180910390f35b610202600480360360208110156101ec57600080fd5b81019080803590602001909291905050506106eb565b005b6102306004803603602081101561021a57600080fd5b81019080803590602001909291905050506107d8565b604051808215151515815260200191505060405180910390f35b6103036004803603602081101561026057600080fd5b810190808035906020019064010000000081111561027d57600080fd5b82018360208201111561028f57600080fd5b803590602001918460018302840111640100000000831117156102b157600080fd5b91908080601f016020809104026020016040519081016040528093929190818152602001838380828437600081840152601f19601f82011690508083019250505050505050919291929050505061088a565b005b6103316004803603602081101561031b57600080fd5b8101908080359060200190929190505050610985565b604051808060200183151515158152602001828103825284818151815260200191508051906020019080838360005b8381101561037b578082015181840152602081019050610360565b50505050905090810190601f1680156103a85780820380516001836020036101000a031916815260200191505b50935050505060405180910390f35b806103c1816106b7565b610433576040517f08c379a000000000000000000000000000000000000000000000000000000000815260040180806020018281038252601a8152602001807f546f646f206d7573742062652076616c696420746f2063616c6c00000000000081525060200191505060405180910390fd5b600080838154811061044157fe5b906000526020600020906002020160010160006101000a81548160ff0219169083151502179055507f3e6e017a26a71c185056d52187a42b48f458d6d60f35fc28b54df4a3388e4c66826040518082815260200191505060405180910390a15050565b606080600060606104b3610af5565b80935081925050506060826040519080825280602002602001820160405280156104ec5781602001602082028038833980820191505090505b5090506060836040519080825280602002602001820160405280156105205781602001602082028038833980820191505090505b50905060008090505b848110156105ba57600084828151811061053f57fe5b602002602001015190508084838151811061055657fe5b6020026020010181815250506000818154811061056f57fe5b906000526020600020906002020160010160009054906101000a900460ff1683838151811061059a57fe5b602002602001019015159081151581525050508080600101915050610529565b50818195509550505050509091565b806105d3816106b7565b610645576040517f08c379a000000000000000000000000000000000000000000000000000000000815260040180806020018281038252601a8152602001807f546f646f206d7573742062652076616c696420746f2063616c6c00000000000081525060200191505060405180910390fd5b60016000838154811061065457fe5b906000526020600020906002020160010160006101000a81548160ff0219169083151502179055507f61d1105621ac231cbad3b861dbf7afa380522c35d47c2dc979cd1da098689104826040518082815260200191505060405180910390a15050565b60008082815481106106c557fe5b906000526020600020906002020160010160019054906101000a900460ff169050919050565b806106f5816106b7565b610767576040517f08c379a000000000000000000000000000000000000000000000000000000000815260040180806020018281038252601a8152602001807f546f646f206d7573742062652076616c696420746f2063616c6c00000000000081525060200191505060405180910390fd5b600080838154811061077557fe5b906000526020600020906002020160010160016101000a81548160ff0219169083151502179055507f73e4229b811312fffcc660ed4dc33edcb38ca330ced2c471913a1c46b81509e3826040518082815260200191505060405180910390a15050565b6000816107e4816106b7565b610856576040517f08c379a000000000000000000000000000000000000000000000000000000000815260040180806020018281038252601a8152602001807f546f646f206d7573742062652076616c696420746f2063616c6c00000000000081525060200191505060405180910390fd5b6000838154811061086357fe5b906000526020600020906002020160010160009054906101000a900460ff16915050919050565b610892610b94565b604051806060016040528083815260200160001515815260200160011515815250905060006001600083908060018154018082558091505090600182039060005260206000209060020201600090919290919091506000820151816000019080519060200190610903929190610bb9565b5060208201518160010160006101000a81548160ff02191690831515021790555060408201518160010160016101000a81548160ff02191690831515021790555050500390507f6edbfebf4adc3e180444860a21cd838446f00049410a44c6ec4a178a2ebe529b816040518082815260200191505060405180910390a1505050565b6060600082610993816106b7565b610a05576040517f08c379a000000000000000000000000000000000000000000000000000000000815260040180806020018281038252601a8152602001807f546f646f206d7573742062652076616c696420746f2063616c6c00000000000081525060200191505060405180910390fd5b60008481548110610a1257fe5b906000526020600020906002020160000160008581548110610a3057fe5b906000526020600020906002020160010160009054906101000a900460ff16818054600181600116156101000203166002900480601f016020809104026020016040519081016040528092919081815260200182805460018160011615610100020316600290048015610ae45780601f10610ab957610100808354040283529160200191610ae4565b820191906000526020600020905b815481529060010190602001808311610ac757829003601f168201915b505050505091509250925050915091565b606060006060600080549050604051908082528060200260200182016040528015610b2f5781602001602082028038833980820191505090505b509050600080905060008090505b600080549050811015610b8757610b53816106b7565b15610b7a5780838381518110610b6557fe5b60200260200101818152505081806001019250505b8080600101915050610b3d565b5081819350935050509091565b6040518060600160405280606081526020016000151581526020016000151581525090565b828054600181600116156101000203166002900490600052602060002090601f016020900481019282601f10610bfa57805160ff1916838001178555610c28565b82800160010185558215610c28579182015b82811115610c27578251825591602001919060010190610c0c565b5b509050610c359190610c39565b5090565b610c5b91905b80821115610c57576000816000905550600101610c3f565b5090565b9056fea265627a7a723158203ab76f7f48bfb2608fd4d3f61a308594d7611b9013772c53b635c2d2befcff7964736f6c63430005100032",
  "source": "pragma solidity ^0.5.0;\r\n\r\n// Reference: https://github.com/pomelyu/EthereumTodo\r\n\r\ncontract TodoApp {\r\n\r\n    event OnTodoAdded(uint todoId);\r\n    event OnTodoDeleted(uint todoId);\r\n    event OnTodoCompleted(uint todoId);\r\n    event OnTodoUndone(uint todoId);\r\n\r\n    struct Todo {\r\n        string taskName;\r\n        bool isComplete;\r\n        bool isValid;\r\n    }\r\n\r\n    Todo[] todos;\r\n\r\n\r\n    // Modifier\r\n    modifier isValidTodo(uint _todoId) {\r\n        require(isTodoValid(_todoId), \"Todo must be valid to call\");\r\n        _;\r\n    }\r\n\r\n\r\n    // Public function\r\n    function isTodoValid(uint _todoId) public view returns(bool isValid) {\r\n        return todos[_todoId].isValid;\r\n    }\r\n\r\n    function isTodoCompleted(uint _todoId) public view isValidTodo(_todoId) returns(bool isValid) {\r\n        return todos[_todoId].isComplete;\r\n    }\r\n\r\n    function getTodo(uint _todoId) public view isValidTodo(_todoId) returns(string memory, bool) {\r\n        return (todos[_todoId].taskName, todos[_todoId].isComplete);\r\n    }\r\n\r\n    function getTodoList() public view returns(uint[] memory, bool[] memory) {\r\n        uint len;\r\n        uint[] memory valids;\r\n\r\n        (valids, len) = _getValidTodos();\r\n\r\n        uint[] memory ids = new uint[](len);\r\n        bool[] memory isCompletes = new bool[](len);\r\n        for (uint i = 0; i < len; i++) {\r\n            uint id = valids[i];\r\n            ids[i] = id;\r\n            isCompletes[i] = todos[id].isComplete;\r\n        }\r\n        return (ids, isCompletes);\r\n    }\r\n\r\n    function addTodo(string memory _taskName) public {\r\n        Todo memory todo = Todo(_taskName, false, true);\r\n        uint todoId = todos.push(todo) - 1;\r\n\r\n        emit OnTodoAdded(todoId);\r\n    }\r\n\r\n    function deleteTodo(uint _todoId) public isValidTodo(_todoId) {\r\n        todos[_todoId].isValid = false;\r\n\r\n        emit OnTodoDeleted(_todoId);\r\n    }\r\n\r\n    function completeTodo(uint _todoId) public isValidTodo(_todoId) {\r\n        todos[_todoId].isComplete = true;\r\n\r\n        emit OnTodoCompleted(_todoId);\r\n    }\r\n\r\n    function undoneTodo(uint _todoId) public isValidTodo(_todoId) {\r\n        todos[_todoId].isComplete = false;\r\n\r\n        emit OnTodoUndone(_todoId);\r\n    }\r\n\r\n    // Private methods\r\n    function _getValidTodos() private view returns(uint[] memory valids, uint length) {\r\n        uint[] memory validTodos = new uint[](todos.length);\r\n        uint count = 0;\r\n        for (uint i = 0; i < todos.length; i++) {\r\n            if (isTodoValid(i)) {\r\n                validTodos[count] = i;\r\n                count++;\r\n            }\r\n        }\r\n        return(validTodos, count);\r\n    }\r\n}",
  "sourcePath": "C:/Users/ANDY/Documents/GitHub/EEexpt-web/ethhw2/EthHW/3_TodoApp/contracts/TodoApp.sol",
  "compiler": {
    "name": "solc",
    "version": "0.5.16+commit.9c3226ce.Emscripten.clang"
  },
  "schemaVersion": "3.3.2",
  "updatedAt": "2020-12-08T15:42:41.530Z",
  "networkType": "ethereum",
  "devdoc": {
    "methods": {}
  },
  "userdoc": {
    "methods": {}
  }
}